:020000040800F2
:1000000068B200209D01000891620008055D0008AB
:100010008D620008350B0008856D000800000000A7
:1000200000000000000000000000000099620008CD
:10003000150E000800000000956200088D6500089C
:10004000B7010008B7010008B7010008B7010008B0
:10005000B7010008B7010008B7010008B7010008A0
:10006000B7010008B7010008B7010008B701000890
:10007000B7010008B7010008B7010008B701000880
:10008000F10D0008B7010008B7010008B70100082A
:10009000B7010008B7010008B7010008B701000860
:1000A000B7010008B7010008B7010008B701000850
:1000B000B7010008B7010008B7010008B701000840
:1000C000B7010008B7010008B7010008B701000830
:1000D000B7010008796D0008B7010008B7010008F2
:1000E000B7010008B7010008B7010008B701000810
:1000F000B7010008B7010008B7010008B701000800
:10010000B7010008B70100084D660008B7010008F4
:10011000B7010008B7010008B7010008B7010008DF
:10012000FD0D0008B7010008090E0008B70100081E
:10013000B7010008B7010008B7010008B7010008BF
:10014000B7010008B7010008B7010008B7010008AF
:10015000B7010008B7010008B7010008B70100089F
:10016000B7010008B7010008B7010008B70100088F
:10017000B7010008B7010008B7010008000000003F
:10018000B7010008B7010008DFF80CD000F0A2F8B2
:10019000004800473D80000868B2002006488047BC
:1001A00006480047FEE7FEE7FEE7FEE7FEE7FEE75C
:1001B000FEE7FEE7FEE7FEE7396600088901000872
:1001C0002DE9F05F0546002092469B46884606468C
:1001D000814640241BE0284641464746224600F01F
:1001E00069F853465A46C01A914110D31146184631
:1001F000224600F050F82D1A67EB01084F462246C0
:100200000120002100F047F817EB00094E41201EA5
:10021000A4F10104DFDC484631462A464346BDE8E6
:10022000F09F40EA01039B0703D009E008C9121FB1
:1002300008C0042AFAD203E011F8013B00F8013BA0
:10024000521EF9D27047D2B201E000F8012B491ECC
:10025000FBD270470022F6E710B513460A46044663
:100260001946FFF7F0FF204610BD30B50B4601469A
:1002700000202022012409E021FA02F59D4205D345
:1002800003FA02F5491B04FA02F52844151EA2F1EF
:100290000102F1DC30BD202A04DB203A00FA02F131
:1002A000002070479140C2F1200320FA03F3194364
:1002B00090407047202A04DB203A21FA02F0002106
:1002C000704721FA02F3D040C2F120029140084366
:1002D000194670471CB50948009009480190054629
:1002E000009C06E0E06840F0010394E807009847AE
:1002F0001034AC42F6D3FFF74BFF00000C6302084A
:100300002C63020870B584B048F22C44C2F2000499
:10031000204604F029F840F26000C2F20000017BA0
:1003200040F22800C2F2000000EBC10250F8310098
:1003300023680138986250680529A0F10100D8624D
:100340005068A0F10100E0604FF00100586155D104
:1003500040F2A50148F24814C2F20001C2F20004C2
:100360000870204602F008FD48F29015C2F2000520
:10037000284602F001FD48F2D816C2F200063046C7
:1003800002F0FAFC172001904FF400400290002088
:10039000039001A9204601F0E7FF002818BF00F0F4
:1003A0003BFD2068816841F0010181602868816817
:1003B00041F0010181603068816841F00101816094
:1003C000304602F041FB284602F03EFB48F22C404A
:1003D000C2F2000003F076FF41F23011C2F20001D8
:1003E00020464FF4007201F0EBFF42F20430C4F2F9
:1003F0000100016841F4005101606FE040F2A50086
:10040000C2F200000178012968D148F248160021A3
:10041000C2F200060170304602F076F8304602F073
:10042000ABFC48F29015C2F20005284602F0A4FC8D
:1004300048F2D814C2F20004204602F09DFCB06BD2
:10044000002818BF02F030FEA86B002818BF02F089
:100450002BFEA06B002818BF02F026FE022003F03E
:10046000A7F848F24814C2F20004204602F032F91C
:1004700048F29010C2F2000002F02CF948F2D810B5
:10048000C2F2000002F026F9022003F091F805F014
:100490003BFC05F06FFC05F0A1FC0020CDE901005C
:1004A000039001A9204601F05FFF002818BF00F06B
:1004B000B3FC022003F07CF848F22C40C2F20000AA
:1004C00003F000FF48F2481041F23011C2F2000080
:1004D000C2F200014FF4806202F064FB48F22C404B
:1004E000C2F2000003F0EEFE04B070BD0146806B66
:1004F000036C026C13F0500F08D0D20648BF02F014
:1005000009B9806BC26C0846104700BF42F4007105
:10051000016401688A6812F0405F01D002F0C8B837
:10052000027E002AFAD1CA6A12F4700F02D08A68D9
:100530005205F3D44A6822F020024A60016C21F48B
:1005400080710164016CC90448BF02F0B1B8016C4C
:1005500041F00101016402F0ABB80000806B402162
:100560000164416C41F00401416402F0D3B8000021
:10057000806B02F0ADB80000B0B54DF60051C0F28E
:100580006D01884238D148F24814C2F20004206854
:1005900048F290158168C2F2000541F001018160C6
:1005A0002868816841F00101816048F2D810C2F2E8
:1005B000000001688A6842F001028A6002F044FA91
:1005C000284602F041FA48F22C40C2F2000003F043
:1005D00079FE41F23011C2F2000120464FF4007260
:1005E00001F0EEFE42F20430C4F20100016841F471
:1005F00000510160B0BD00BF48F22C40C2F20000C3
:1006000003F060FE48F2481041F23011C2F20000DF
:10061000C2F200014FF48062BDE8B04002F0C2BAFD
:10062000F0B581B01446002A7AD000EB810140F287
:100630002C1004F00302042CC2F2000002D20023AA
:1006400039E000BF6FF00C039FED450A9FED451A9E
:1006500003EA8406002500234F1997ED002A97ED41
:10066000013A97ED024A97ED035AB8EE422AB8EEE6
:10067000433AB8EE444AB8EE455A82EE002A83EE79
:10068000003A84EE004A85EE005A47191035AE4212
:1006900003F1040322EE012A23EE013A24EE014A7B
:1006A00025EE015A87ED002A87ED013A87ED024ACF
:1006B00087ED035AD0D19AB301EB830696ED001A69
:1006C0009FED270AB8EE411A81EE002A9FED251A08
:1006D00000EB8306012A22EE012A86ED002A1FD0B4
:1006E0005E1C01EB860595ED002A00EB8606B8EE50
:1006F000422A82EE002A022A22EE012A86ED002AF0
:100700000ED09A1C01EB820191ED002A00EB8200D1
:10071000B8EE422A82EE000A20EE010A80ED000ABD
:1007200040F2840740F22C15C2F20007C2F2000525
:100730006E463A1D28462146334606F085FF07F1EE
:10074000080228462146334606F0DCFF97ED010AF1
:1007500097ED021A30EE410A87ED000A01B0F0BDB4
:1007600000F07F4533335340002A08BF7047F0B58F
:10077000042A02F0030C01D2002220E06FF00C04E6
:10078000A1F1200304EA820E00240022055B01EBA4
:10079000440743F8205F055B06197D60B588103477
:1007A000BD60B588A645DD60358902F104021D6192
:1007B00035897D61B589BD61B589DD61E6D1BCF161
:1007C000000F23D030F8223001EBC20441F8323060
:1007D00030F82230BCF1010F636017D0531C30F8A1
:1007E000234001EBC30E41F8334030F82330BCF115
:1007F000020FCEF8043009D0023230F8223041F82E
:10080000323030F8220001EBC2014860BDE8F04010
:10081000704700000146806B026C12F0500F03D04D
:10082000806BC26C084610470168026C42F400728B
:1008300002648A6812F0405F02D001F039BF00BF45
:10084000027E002AF9D1CA6A12F4700F02D08A68B7
:100850005205F2D44A6822F020024A60016C21F469
:1008600080710164016CC90448BF01F021BF016CB3
:1008700041F00101016401F01BBF0000806B4021C9
:100880000164416C41F00401416401F043BF000088
:10089000806B01F01DBF000040F2A401C2F2000114
:1008A000087800284FF000001EBF087041F2301099
:1008B000C2F20000704700004DF60051C0F26D0119
:1008C000884227D170B548F24814C2F2000420468D
:1008D00002F038FA48F29015C2F20005284602F0FC
:1008E00031FA48F2D816C2F20006304602F02AFA6F
:1008F000304602F0A9F8284602F0A6F841F230117D
:10090000C2F2000120464FF40072BDE8704001F0D1
:1009100057BD00BF48F2481041F23011C2F200004A
:10092000C2F200014FF4806202F03CB970B540F2AF
:10093000A605C2F20005287840F284040328C2F21A
:10094000000400F27F80DFE800F0034F234100BF86
:1009500040F26006C2F200060020307101202870CB
:1009600004F1100000F05CFA94ED040A9FED681A9F
:10097000B4EE410AF1EE10FA56DB9FED661AB4EEC2
:10098000410AF1EE10FA4FDC0020F07048E000BFA1
:100990000320287004F1100000F042FA94ED040ADC
:1009A0009FED571AB4EE410AF1EE10FA06DB9FED07
:1009B000551AB4EE410AF1EE10FA2BDD40F2600058
:1009C000C2F200000121017337E000BF042028704B
:1009D00004F1100000F024FA40F26000C2F20000BE
:1009E0000021C17030E000BF022604F110002E701B
:1009F00000F016FA94ED040A9FED431AB4EE410A92
:100A0000F1EE10FA14DB9FED411AB4EE410AF1EE5B
:100A100010FA0DDC40F26000C2F200000021C1704B
:100A2000632028700DE000BF0320307305E000BF95
:100A300040F26000C2F20000067300F0A7F8FFF772
:100A400061FC287863284CD194ED040A9FED322A8A
:100A50000020287040F26000B4EE420AC2F20000AA
:100A60000121F1EE10FA017102DD052134E000BF31
:100A70009FED2A1AB4EE410AF1EE10FA06DDB4EE4B
:100A8000420AF1EE10FA01DC042125E09FED242A50
:100A9000B4EE420AF1EE10FA06DDB4EE410AF1EED0
:100AA00010FA01DC032117E0B3EE041AB4EE410A98
:100AB000F1EE10FA06DDB4EE420AF1EE10FA01DCB6
:100AC000022109E0B5EE400AF1EE10FA09DDB4EEBC
:100AD000410AF1EE10FA04DC017300F057F8FFF759
:100AE00011FC94ED040AB6EE001A30EE010ABDEED8
:100AF000C00A10EE101A0BA007F09EFC002070BD7B
:100B00000000F04300409C4500B09A450050434728
:100B1000005C41470024F44800606A460000FA4443
:100B2000000048436E342E76616C3D2564FFFFFF64
:100B300000000000FEE7000040F26000C2F200008A
:100B4000012282704FF4807240F21003A0F803205B
:100B50000422C2F200031B6902736422C0F2010284
:100B600000218360C0F80E204FF47A7C4FF0804360
:100B70004FF07C5201808163C0E9053CC0E9072247
:100B8000C0E90911C0E90B117047000040F2600094
:100B9000C2F20000017B40F21002C2F2000252F8E1
:100BA000211081607047000010B5846B204602F070
:100BB00059F90120207110BD10B5846B204602F058
:100BC0001BF90120207110BD10B5846B206940F025
:100BD00004002061204602F049F90120207110BD77
:100BE00010B5846B206940F004002061204602F0BB
:100BF00007F90120207110BD806B02F035B90000AB
:100C0000806B02F0FBB8000070B52DED068B054639
:100C100048F220200C46C2F200000021B0EE418ACA
:100C2000B0EE609AB0EE40AA002602F00FFA284615
:100C30002146B0EE4A0AF0EE490AB0EE481A01F039
:100C400061FA00EE104AB8EE400A40F2A800B7EE92
:100C5000001AC2F20000B4EE410AF1EE10FAB8BF79
:100C6000B0EE410A00884AF200219FED1E1AC0F240
:100C70004A41B1FBF0F0B4EE410AF1EE10FAC8BF00
:100C8000B0EE410A01EE100AB8EE411A81EE000AF8
:100C9000BFEE001A48F25434C2F20004204630EE8F
:100CA000010A9FED111AB5EE400AF1EE10FAB8BF35
:100CB000B0EE410AB6EE001A30EE018A03F054FBA2
:100CC0002168BCEEC80A012281ED0B0A84ED030AFB
:100CD0004E6220464A61BDEC068BBDE8704003F0D1
:100CE000F1BA00BF0024F44800000000B0B52DEDBB
:100CF000108B40F2A8009FED258A9FED259A9FED6D
:100D000025BA9FED25CA9FED25DA9FED25FA48F219
:100D1000BC45C2F2000090210024B7EE00AAB6EE56
:100D200000EAC2F20005018000EE104AB8EE400A67
:100D300020EE080A80EE090A07F028F930EE0A0AC8
:100D400020EE0B0A20EE0C0A30EE0D0A30EE0E0AF1
:100D5000BDEEC00A10EE100A20EAE07000EE100AA4
:100D6000B8EE400AB4EE4F0AF1EE10FAC8BFB0EE8A
:100D70004F0ABDEEC00A10EE100A25F81400013427
:100D8000902CD1D1BDEC108BB0BD00BFDB0FC940A2
:100D90000000104300F0FF44CA269B3E181D1B4470
:100DA00000F07F4580B582B048F25430C2F20000B6
:100DB00003F088FA40F2A800C2F20000038848F26B
:100DC000202048F2BC424FF0000CC2F20000C2F2F8
:100DD00000020021CDF800C002F0C0F802B080BDD2
:100DE00048F22020C2F20000002102F02FB90000DA
:100DF00048F29420C2F2000002F0F4B948F2342024
:100E0000C2F2000002F0EEB948F2F420C2F2000093
:100E100002F0E8B97047000072B600BFFEE70000BC
:100E20002DE9F04182B040F26008C2F200080446A9
:100E3000D8F808004DF60051C0F26D0188424FF01D
:100E40000000CDE900006FD142F2301145F24812A6
:100E5000C2F20001C2F200020E1896ED000A96EDF1
:100E6000011A96ED022A96ED033A96ED044A96EDA4
:100E7000055A96ED066A96ED077AB8EE400A131801
:100E8000B8EE411AB8EE422AB8EE433AB8EE444AF8
:100E9000B8EE455AB8EE466AB8EE477A83ED000AD6
:100EA00083ED011A83ED022A83ED033A83ED044AB0
:100EB00083ED055A83ED066A83ED077A96ED080AFD
:100EC00096ED091A96ED0A2A96ED0B3A96ED0C4A24
:100ED00096ED0D5A96ED0E6A96ED0F7A4030B8EE0B
:100EE000400AB8EE411AB8EE422AB8EE433AB8EEDC
:100EF000444AB8EE455AB8EE466AB8EE477AB0F5BD
:100F0000805F83ED080A83ED091A83ED0A2A83EDD9
:100F10000B3A83ED0C4A83ED0D5A83ED0E6A83ED97
:100F20000F7A99D170E000BF41F22C10C2F200009C
:100F3000006845F248120021C2F20002461896ED00
:100F4000000A96ED011A96ED022AB8EE400A5318EF
:100F500096ED033A83ED000AB8EE410A83ED010AEB
:100F6000B8EE420A96ED041A83ED020AB8EE430A7F
:100F700083ED030AB8EE410A96ED051A83ED040AE3
:100F8000B8EE410A96ED061A83ED050AB8EE410A5D
:100F900096ED071A83ED060AB8EE410A96ED081A97
:100FA00083ED070AB8EE410A96ED091A83ED080AA7
:100FB000B8EE410A83ED090A96ED0A0A96ED0B1A7E
:100FC00096ED0C2AB8EE400A96ED0D3A83ED0A0A2A
:100FD000B8EE410A83ED0B0AB8EE420A96ED0E1AFE
:100FE00083ED0C0AB8EE430A83ED0D0AB8EE410A10
:100FF00096ED0F1A403183ED0E0AB8EE410AB1F5B5
:10100000805F83ED0F0A99D146F2481545F2301002
:1010100045F24811C2F20005C2F20000C2F200011E
:101020002A460023002706F045FF48F65C26C2F258
:1010300000062846314640F2012206F05BFA01AA7A
:101040006B46304640F20121376006F0FDFA98ED1C
:10105000021A9DED000A9FED082AB8EE411AB8EE7B
:10106000400A21EE021A21EE000A002084ED000A57
:1010700002B0BDE8F08100BF0000803A45F23010B8
:10108000C2F200004FF4806106F037BF10B504686B
:10109000B7EE001A31EE401A4FF0000E40F6FC7C1D
:1010A0000C6000BF00EB0E0292ED012A03EE104A25
:1010B000B8EE422AB8EE433A21EE033A20EE022A75
:1010C00032EE032A01EB0E03BCEEC22A83ED012AA5
:1010D00092ED023AB8EE422AB8EE433A21EE022AE5
:1010E00020EE033A33EE022ABCEEC22A83ED022A36
:1010F00092ED033AB8EE422AB8EE433A21EE022AC4
:1011000020EE033A33EE022ABCEEC22A83ED032A14
:1011100092ED043AB8EE422AB8EE433A21EE022AA2
:1011200020EE033A33EE022ABCEEC22A83ED042AF3
:1011300092ED053AB8EE422AB8EE433A21EE022A81
:1011400020EE033A33EE022ABCEEC22A83ED052AD2
:1011500092ED063AB8EE422AB8EE433A21EE022A60
:1011600020EE033A33EE022ABCEEC22A83ED062AB1
:1011700092ED073AB8EE422AB8EE433A21EE022A3F
:1011800020EE033A33EE022ABCEEC22A83ED072A90
:1011900092ED083AB8EE422AB8EE433A21EE022A1E
:1011A00020EE033A33EE022ABCEEC22A83ED082A6F
:1011B00092ED093AB8EE422AB8EE433A21EE022AFD
:1011C00020EE033A33EE022ABCEEC22A83ED092A4E
:1011D00092ED0A3AB8EE422AB8EE433A21EE022ADC
:1011E00020EE033A33EE022ABCEEC22A83ED0A2A2D
:1011F00092ED0B3AB8EE422AB8EE433A21EE022ABB
:1012000020EE033A33EE022ABCEEC22A0EF12C0E77
:10121000E64512EE104A83ED0B2A7FF443AF10BD72
:1012200040F29C03C2F200031A68002A04BF0020A7
:1012300070475B680132013300EE103A01EE102A6C
:10124000B8EE400AB8EE411A80EE010A48F2804337
:10125000C0F21E03B3FBF2F29FED062A01EE102A44
:10126000B8EE411A80ED001A012020EE020A81ED4D
:10127000000A70470000C84210B548F2E434C2F2D8
:1012800000042046002103F095FA20460421BDE821
:10129000104003F08FBA0000002808BF70472DE906
:1012A000F0439FEDE03AB5EE400A9FEDDF2AF1EE04
:1012B00010FAB8BFB0EE420AB4EE430AF1EE10FAEB
:1012C000F5EE400AC8BFB0EE430AF1EE10FAB8BF1F
:1012D000F0EE420AF4EE430AF1EE10FAB5EE401ACF
:1012E000B7EE004AC8BFF0EE430AF1EE10FAB8BFFD
:1012F000B0EE421AB4EE441A05EE100AF1EE10FAFE
:10130000C8BFB0EE441AB8EE455A25EE015AB6EE03
:10131000001A35EE015ABCEEC55A15EE101A012915
:101320000B46804698BF0123834238BF98466FEA38
:1013300008021718A8F1010205EE102AB8EE455A66
:1013400000F0030C10D006EE107AB8F1010FB8EEE1
:10135000466A11D104282BD20020BCF1000F40F0C6
:10136000DA81BDE8F0437047B8F1010F1AD10428C3
:1013700080F07C8200201CE348F2BC4E0428C2F2BC
:10138000000E80F0DD800020BCF1000FE9D0834228
:1013900040F2308207EE100AB8EE477A87EE057AFF
:1013A00032E200BF042880F06983002000F028BCEE
:1013B00048F2BC4EC2F2000E9FEDD35A0EF1060663
:1013C00020F00300002221E030EE877AB5EE407A6B
:1013D000F1EE10FAB8BFB0EE427AB4EE437AF1EE15
:1013E00010FAC8BFB0EE437A87EE037A27EE057A8B
:1013F00037EE017ABDEEC77A17EE102A82F30C079A
:10140000621C824226F8087B00F0808115469342D8
:10141000B0EE407A0AD86A1E07EE102AB8EE477A74
:1014200087EE067A34EE477A20EE077A01EE905A7C
:10143000F8EE611AC1EE861A30EE877AB5EE407A80
:10144000F1EE10FAB8BFB0EE427AB4EE437AF1EEA4
:1014500010FA05F10104C8BFB0EE437AA14287EE4D
:10146000037A74EE611A60EE211A88BFF0EE401A1A
:1014700070EEA11AF5EE401AF1EE10FAB8BFF0EED8
:10148000421AF4EE431AF1EE10FAC8BFF0EE431A16
:10149000C1EE831A27EE057A37EE017ABDEEC77AE0
:1014A00017EE102A82F30C0226F8062C0EEB4502EA
:1014B00021EE857A37EE017ABDEEC77A17EE107A03
:1014C00087F30C075780AF1CB942B0EE407A09D8B9
:1014D00007EE104AB8EE477A87EE067A34EE477A7E
:1014E00020EE077A30EE877AB5EE407AF1EE10FA08
:1014F000B8BFB0EE427AB4EE437AF1EE10FAC8BF4C
:10150000B0EE437A87EE037A27EE057A37EE017A5A
:10151000BDEEC77A17EE104A84F30C0494807C1C4D
:10152000A142B0EE407A3FF64FAF07EE107AB8EE28
:10153000477A87EE067A34EE477A20EE077A43E759
:101540009FED717A20F003090EF10605C8F100063F
:10155000002029E001EE902AF8EE611AC1EE851A0A
:1015600060EE211A70EEA11AF5EE401AF1EE10FAB3
:10157000B8BFF0EE421AF4EE431AF1EE10FAC8BF0B
:10158000F0EE431AC1EE831A0430814561EE871AEA
:1015900071EE811AFDEEE11A11EE902A82F30C022F
:1015A00025F8082B3FF4F0AE834207D901EE900AEC
:1015B000F8EE611AC1EE851A09E000BF321801EE9B
:1015C000902AF8EE611AC1EE861A74EE611A60EE86
:1015D000211A70EEA11AF5EE401AF1EE10FAB8BF1A
:1015E000F0EE421AF4EE431AF1EE10FAC8BFF0EE34
:1015F000431AC1EE831A471CB94261EE871A71EE95
:10160000811AFDEEE11A11EE902A82F30C0225F800
:10161000062C0BD901EE907AF8EE611AC1EE851A0C
:101620000EE000BF33335340000000003218013297
:1016300001EE902AF8EE611AC1EE861A74EE611A74
:1016400060EE211A70EEA11AF5EE401AF1EE10FAD2
:10165000B8BFF0EE421AF4EE431AF1EE10FAC8BF2A
:10166000F0EE431AC1EE831A0EEB400761EE871AC3
:1016700071EE811AFDEEE11A11EE902A82F30C044C
:10168000821C91427C8007D901EE902AF8EE611A03
:10169000C1EE851A0AE000BF3218023201EE902A2C
:1016A000F8EE611AC1EE861A74EE611A60EE211A24
:1016B00070EEA11AF5EE401AF1EE10FAB8BFF0EE96
:1016C000421AF4EE431AF1EE10FAC8BFF0EE431AD4
:1016D000C1EE831A61EE871A71EE811AFDEEE11AEE
:1016E00011EE902A82F30C04C21C9142BC803FF69A
:1016F00031AF3218033201EE902AF8EE611AC1EED2
:10170000861A74EE611A2BE700F07F45281DBCF1A4
:10171000000F3FF426AE8342B0EE405A0AD8421E74
:1017200005EE102AB8EE455A85EE065A34EE455AB3
:1017300020EE055A30EE855AB5EE405AF1EE10FA19
:10174000B8BFB0EE425AB4EE435AF1EE10FAC8BF39
:10175000B0EE435A85EE037A1FED155ABCF1010F26
:1017600027EE057A37EE017ABDEEC77A17EE102A1A
:1017700082F30C0348F2BC42C2F2000222F810309D
:101780003FF4EFAD07EE100AB8EE477A87EE067A1F
:10179000431C994234EE477A20EE077A88BFB0EEB8
:1017A000407A30EE877AB5EE407AF1EE10FAB8BFA3
:1017B000B0EE427AB4EE437AF1EE10FAC8BFB0EE62
:1017C000437A87EE037ABCF1020F27EE055A35EE15
:1017D000015ABDEEC55A15EE107A87F30C0722F8B0
:1017E00013703FF4BEAD0230814200F2C98205EEB3
:1017F000103ABDE2A0EB080207EE102AB8EE477AD5
:1018000087EE067A34EE477A20EE077A30EE877A52
:10181000B5EE407AF1EE10FAB8BFB0EE427AB4EE0F
:10182000437AF1EE10FAC8BFB0EE437AC7EE031A5E
:101830001FED4B7ABCF1010F61EE871A71EE811A30
:10184000FDEEE11A11EE902A82F30C022EF8102020
:101850003FF487AD431C994240F24E8201EE903A2C
:10186000F8EE611AC1EE851A50E200BF1FED5A4A28
:1018700048F2BC4620F0030E0020C2F2000600BF72
:10188000B0EE425A834288BFB0EE405A30EE855ADD
:10189000B5EE405AF1EE10FAB8BFB0EE425AB4EECF
:1018A000435AF1EE10FA00F10107B0EE426AC8BFE8
:1018B000B0EE435AB94288BFB0EE406A30EE866A55
:1018C000B5EE406AF1EE10FAB8BFB0EE426AB4EE7F
:1018D000436AF1EE10FA00F10207B0EE427AC8BF97
:1018E000B0EE436AB94288BFB0EE407A85EE035A43
:1018F00030EE877AB5EE407AF1EE10FAB8BFB0EE6E
:10190000427AB4EE437A86EE036AF1EE10FA00F101
:101910000307F0EE421AC8BFB0EE437AB94288BF5F
:10192000F0EE401A70EEA11A87EE037AF5EE401A37
:10193000F1EE10FAB8BFF0EE421AF4EE431AF1EEEF
:1019400010FAC8BFF0EE431AC1EE831A25EE045A0E
:1019500035EE015ABDEEC55A15EE107A26EE045A40
:1019600035EE015ABDEEC55A15EE105A27EE045A4F
:1019700035EE015ABDEEC55A15EE104A87F30C0735
:1019800021EE845A35EE015ABDEEC55A15EE102AE5
:1019900026F8107006EB4007043085F30C0584F33D
:1019A0000C0482F30C0270457D80BC80FA807FF4C9
:1019B00067AFBCF1000F3FF4D4ACB0EE424A8342B3
:1019C00088BFB0EE404A30EE844AB5EE404AF1EEB0
:1019D00010FAB8BFB0EE424AB4EE434AF1EE10FA44
:1019E000C8BFB0EE434A84EE035A9FEDF94ABCF1FA
:1019F000010F25EE045A35EE015ABDEEC55A15EE1B
:101A0000102A82F30C0348F2BC42C2F2000222F810
:101A100010303FF4A6AC431CB0EE425A994288BF46
:101A2000B0EE405A30EE855AB5EE405AF1EE10FA5B
:101A3000B8BFB0EE425AB4EE435AF1EE10FAC8BF46
:101A4000B0EE435A85EE035ABCF1020F25EE044A6C
:101A500034EE014ABDEEC44A14EE107A87F30C0747
:101A600022F813703FF47DAC0230B0EE424A81425E
:101A700088BFB0EE404AB0EE440A81E19FEDD44AFF
:101A800048F2BC4620F0030E0020C2F2000600BF60
:101A900006EE100AB8EE466A86EE056A471C07EEA7
:101AA000107AB8EE477A87EE057AF0EE421A834252
:101AB000F0EE422A00F10305F0EE423A20EE066A0B
:101AC00088BFF0EE461A30EEA16AB5EE406AF1EE3C
:101AD00010FAB8BFB0EE426AB4EE436AF1EE10FA03
:101AE000C8BFB0EE436AB94200F1020701EE907A36
:101AF000F8EE611AC1EE851A20EE077A88BFF0EE83
:101B0000472A30EEA27A02EE905AF8EE622AC2EE2E
:101B1000852AB5EE407AF1EE10FAB8BFB0EE427AFF
:101B2000B4EE437AF1EE10FA86EE036AC8BFB0EE67
:101B3000437A60EE211AB94288BFF0EE613A70EE46
:101B4000A31AF5EE401AF1EE10FAB8BFF0EE421A01
:101B5000F4EE431A87EE037AF1EE10FA60EE222AD1
:101B6000F0EE423AC8BFF0EE431AA94288BFF0EE49
:101B7000623A70EEA32AC1EE831AF5EE402AF1EE26
:101B800010FAB8BFF0EE422AF4EE432AF1EE10FA52
:101B9000C8BFF0EE432AC2EE832A26EE046A36EE70
:101BA000016ABDEEC66A16EE107A27EE046A36EEBA
:101BB000016ABDEEC66A16EE105A21EE846A36EE50
:101BC000016ABDEEC66A16EE104A87F30C0722EED4
:101BD000846A36EE016ABDEEC66A16EE102A26F851
:101BE000107006EB4007043085F30C0584F30C04F9
:101BF00082F30C0270457D80BC80FA807FF448AF90
:101C0000BCF1000F3FF4ADAB04EE100AB8EE444A4D
:101C100084EE054AB0EE426A834220EE044A88BF51
:101C2000B0EE446A30EE864AB5EE404AF1EE10FA64
:101C3000B8BFB0EE424AB4EE434AF1EE10FAC8BF64
:101C4000B0EE434A84EE036A9FED614ABCF1010F96
:101C500026EE046A36EE016ABDEEC66A16EE102A5A
:101C600082F30C0348F2BC42C2F2000222F81030A8
:101C70003FF477AB431C06EE103AB8EE466A86EEA8
:101C8000056AB0EE427A994220EE066A88BFB0EE4D
:101C9000467A30EE876AB5EE406AF1EE10FAB8BFC8
:101CA000B0EE426AB4EE436AF1EE10FAC8BFB0EE8D
:101CB000436A86EE036ABCF1020F26EE044A34EE54
:101CC000014ABDEEC44A14EE107A87F30C0722F8DD
:101CD00013703FF446AB023004EE100AB8EE444AEB
:101CE00084EE054A814220EE044AB0EE420A88BFE3
:101CF000B0EE440A44E000BFA3EB080201EE902AD4
:101D0000F8EE611AC1EE861A74EE611A60EE211ABD
:101D100070EEA11AF5EE401AF1EE10FAB8BFF0EE2F
:101D2000421AF4EE431AF1EE10FAC8BFF0EE431A6D
:101D3000C1EE831ABCF1020F21EE877A37EE017AE9
:101D4000BDEEC77A17EE102A82F30C022EF813208C
:101D50003FF407AB0230814206D904EE100AB8EE18
:101D6000444A84EE054A09E0A0EB080105EE101A8A
:101D7000B8EE455A85EE065A34EE454A20EE040A7E
:101D800030EE800AB5EE400AF1EE10FAB8BFB0EEC0
:101D9000420AB4EE430AF1EE10FAC8BFB0EE430AAD
:101DA00080EE030A9FED0A2A48F2BC42C2F200020A
:101DB00020EE020A30EE010ABDEEC00A10EE101A43
:101DC00081F30C0122F81010BDE8F043704700BF0A
:101DD00000F07F4570B59FEDC82AF5EE400AF1EEA0
:101DE00010FAB8BFF0EE420AB7EE002AF4EE420A4B
:101DF000F1EE10FAC8BFF0EE420A002800F07B8135
:101E00009FEDBE2A9FEDBE3A81EE021A80EE022AB5
:101E100000EE100AB8EE400A20EE800ABDEEC00ABD
:101E200010EE101A00F0030C21EE030A22EE032A32
:101E3000B6EE001A32EE002A32EE012ABDEEC22AB8
:101E4000B5EE400A12EE103AF1EE10FA10DD30EE67
:101E5000010ABDEEC00A9AB240F6FF74A24210EE2B
:101E6000102A5BD2042880F0AF800020D2E000BFAF
:101E70009AB240F6FF76B24256D204284FF00002E2
:101E800027D320F0030E48F2BC40C2F2000000BF8E
:101E900000248A42B8BF1C4620F81240541C8C42D1
:101EA0004FF0000400EB4205B8BF1C466C80941C48
:101EB0008C424FF00004B8BF1C46AC80D41C8C424E
:101EC0004FF0000402F10402B8BF1C467245EC80DA
:101ED000DED1BCF1000F00F00E818A424FF0000607
:101EE00048F2BC444FF00000B8BF1E46C2F20004E6
:101EF000BCF1010F24F8126000F0FD80561C8E42E8
:101F0000B8BF1846BCF1020F24F8160008BF70BD18
:101F1000901C8842A8BF00231A46E6E0042880F0FF
:101F200099800020C0E000BF48F2BC430022042892
:101F3000C2F2000327D320F0030000BF00268A422C
:101F4000B8BF40F6FF7623F81260561C8E424FF061
:101F5000000603EB4205B8BF40F6FF766E80961C84
:101F60008E424FF00006B8BF40F6FF76AE80D61C1A
:101F70008E424FF0000602F10402B8BF40F6FF7631
:101F80008242EE80DAD1BCF1000F00F0B4808A42C8
:101F90004FF000064FF00000B8BF40F6FF76BCF1EE
:101FA000010F23F8126000F0A680561C8E42B8BFC5
:101FB00040F6FF70BCF1020F23F8160000F09B8082
:101FC000901C00228DE000BF48F2BC4420F0030EBC
:101FD0000020C2F2000400BF15468842B8BF1D466B
:101FE00024F81050451C8D42154604EB4006B8BF3E
:101FF0001D467580851C8D421546B8BF1D46B580AF
:10200000C51C8D42154600F10400B8BF1D46704541
:10201000F580E1D1BCF1000F6DD08842164648F240
:10202000BC44B8BF1E46C2F20004BCF1010F24F844
:10203000106060D0461C8E421546B8BF1D46BCF1EC
:10204000020F24F8165056D002308842B8BF1A4604
:102050004BE000BF48F2BC4320F0030E0020C2F268
:10206000000300BF14468842B8BF40F6FF7423F84F
:102070001040441C8C42144603EB4005B8BF40F6A8
:10208000FF746C80841C8C421446B8BF40F6FF7409
:10209000AC80C41C8C42144600F10400B8BF40F66A
:1020A000FF747045EC80DDD1BCF1000F23D0884275
:1020B000164648F2BC43B8BF40F6FF76C2F20003B2
:1020C000BCF1010F23F8106015D0461C8E42154656
:1020D000B8BF40F6FF75BCF1020F23F816500AD0C6
:1020E00002308842B8BF40F6FF7248F2BC41C2F2EB
:1020F000000121F8102070BD000000003333534070
:1021000000F07F4570B52DED108B40F2E34248247E
:10211000914238BF9024B1F5C87F40F2A80198BF22
:102120004FF43474C2F2000103280C8000F2FB80EB
:10213000DFE810F0040004015000FC009FED861A57
:102140009FED869A80EE812A80EE018A00EE104A89
:102150009FED83CA9FED83EA48F2BC46B8EE40BAD1
:102160000025B7EE00DAB6EE00FAC2F2000622EE63
:1021700009AA00BF00EE105AB8EE400A20EE0C0A81
:1021800080EE0B0A05F002FF30EE0D0A20EE0E0A7B
:1021900020EE080A30EE0A0A30EE0F0ABDEEC00A41
:1021A00010EE100A20EAE07000EE100AB8EE400AC5
:1021B000B4EE490AF1EE10FAC8BFB0EE490ABDEE1E
:1021C000C00A10EE100A26F815000135AC42D1D134
:1021D000A9E000BF9FED601A03EE104A80EE812A4D
:1021E00080EE010A9FED5D1A48F2BC4CB8EE433A0E
:1021F0000020B0EE004AB6EE005A40F6FF71C2F27F
:10220000000C22EE012A00BF06EE100AB8EE466A64
:1022100086EE036A421C07EE102AB8EE477A87EE74
:10222000037A821CC61CB4EE456A36EE066A74EE6A
:10223000460AF1EE10FAB8BFF0EE460A20EE816AC7
:1022400026EE006A36EE026A36EE056ABDEEC66A12
:1022500016EE103AB4EE457A37EE076A07EE102A0A
:102260008B42B8EE477A74EE460A28BF0B46F1EE71
:1022700010FA87EE037AB8BFF0EE460A20EE816AC4
:1022800026EE006A36EE026A36EE056ABDEEC66AD2
:1022900016EE102A06EE106AB8EE466A86EE036A5B
:1022A0008A4228BF0A46B4EE457A37EE077A74EEC2
:1022B000470AF1EE10FAB8BFF0EE470A20EE817A35
:1022C00027EE007A37EE027A37EE057ABDEEC77A4E
:1022D00017EE106AB4EE456A36EE066A8E4234EEA8
:1022E000467A28BF0E46F1EE10FAB8BFB0EE467A35
:1022F00027EE016A26EE006A36EE026A36EE056ABD
:10230000BDEEC66A16EE105A2CF810300CEB4003E6
:102310008D4200F104005A809E8028BF0D46A042E5
:10232000DD807FF471AFBDEC108B70BD2046BDEC3D
:10233000108BBDE87040FEF7AFBF00BFB0EE602A63
:10234000F0EE410AB0EE421A2046BDEC108BBDE81B
:102350007040FFF73FBD00BF3333534000F07F456F
:10236000DB0FC94000F0FF4490F83C20012A04BF75
:102370000220704780B542F20432C4F201021368B1
:1023800023F01F031360D2F800C00B68D1F808E0F7
:1023900043EA0C031360136823F440431360496855
:1023A000136819431160116821F47061116011689C
:1023B00041EA0E011160002180F83C10002080BD30
:1023C000B0B582B00023019390F83C30012B03D1CB
:1023D000022002B0B0BD00BF0D460123016880F8A5
:1023E0003C308B689446DB0729D18B684DF68362BD
:1023F00043F001038B6040F25803C2F200031B68F4
:10240000C4F21B32A3FB02239A0C02EB420201929C
:10241000019AA2B1019A013A0192019A7AB1019A04
:10242000013A0192019A52B1019A013A0192019A3C
:102430002AB1019A013A0192019A002AEAD18A68E6
:10244000036CD20708D143F01001016400F144018C
:102450000020012252E000BF40F2017223EA020292
:1024600002F5807202644A68520504D5026C0123A9
:1024700063F30D320264026C0023D20444BF426C49
:1024800022F006034364836B40F6150240F6910484
:10249000C0F60002C0F60004C3E90F2440F67D0236
:1024A000C0F600024FF0000EDA646FF0020280F80E
:1024B0003CE00A604A6842F080624A6042F20431BD
:1024C000C4F2010190F830200C68002A24F4005472
:1024D00018BF04F5005441F8044B044618462A4638
:1024E000634601F013F8216851F8082F12F0405F9D
:1024F00002D002B0B0BD00BF4FF080420B681A435B
:102500000A6002B0B0BD000090F83C10012904BF81
:1025100002207047B0B50121026880F83C10916834
:10252000002421F0010191609168C9074FF000017A
:1025300019D142F20431C4F201010A68054622F4BD
:1025400000520A60816B084600F0AEFD2A68014621
:102550005368284623F0806353602A6C41F20113CC
:102560009A4301322A6480F83C40BDE8B0400846F6
:102570007047000070B581B00022009290F83C20B6
:10258000012A03D1022001B070BD00BFD1F800E0E4
:1025900001221FFA8EFC4FEA4C0380F83C200EEB20
:1025A0004E0213FA8EF31024BEF1090F88BFA3F177
:1025B0001E0288BF0C24036807251E59954026EA91
:1025C00005051D518D681E5905FA02F232431A5154
:1025D0004968062906D801EB81014A1F194651F8BE
:1025E000345F0EE00C2901EB810105D8A1F1230233
:1025F000194651F8305F04E0A1F14102194651F843
:102600002C5F1F24944025EA04040C600CFA02F2AB
:102610000C6842F2043CC4F2010C2243ACF5417454
:10262000A3420A603ED1BEF1120F07D1DCF80010C0
:1026300041F48001CCF8001034E000BF2EF001011D
:1026400010292FD1DCF80010BEF1100F41F4000169
:10265000CCF8001026D140F25801C2F200010968FE
:102660004DF68362C4F21B32A1FB0212910C01EB06
:102670008101490000910099A1B1009901390091AF
:10268000009979B1009901390091009951B10099EF
:1026900001390091009929B10099013900910099FF
:1026A0000029EAD1002180F83C10002001B070BD63
:1026B000006842F20001C4F20101884218BF70476D
:1026C00040F2A400C2F20000012101707047000036
:1026D00070470000002804BF012070470168026CA9
:1026E00042F0020202648A6822F001028A6089686C
:1026F000C90709D110B5044600F0BCF820460021F6
:1027000061642164BDE81040002180F83C10002085
:102710007047000070470000002804BF0120704788
:1027200010B5016C00293DD0016CC90645D4016C7F
:1027300041F202129143023142F204320164C4F2C6
:102740000102116821F440311160136890E8121001
:102750002343D0F810E013604A68012422F4807209
:102760004A604A68C0F6007442EA0E224A604A682B
:1027700022F040724A604A6842EA0C024A608A6863
:1027800022F400628A60C2688B681A438A60826A97
:102790008B68A24223F070638B608B6810D123F0AA
:1027A000405216E0044600F0A5F82046002161647E
:1027B00084F83C10016CC906B9D5012153E000BF73
:1027C0001A438A608A6822F040528A60C26A8B6823
:1027D0001A438A608A6822F002028A608A68037E4D
:1027E00090F8204042EA43028A604A6884B142F489
:1027F00000624A604A684EF2000322F460424A6076
:10280000426ACFF6FF734C6803EB4232224301E089
:1028100022F400624A60CA6A40F2000C22F470029C
:10282000CA62C3694269CFF6F07CCC6A0CEB0353F1
:102830002343CB628B6823F400738B6090F83030B5
:102840008C6844EA43238B608B6823F480638B603D
:102850008B6843EA82228A6000214164026C012372
:1028600063F301020264002280F83C20BDE81040BE
:1028700008467047016842F20022C4F20102914208
:102880002AD042F20012C4F2010291421CD042F25C
:102890000002C4F20102914218BF704710B543F61E
:1028A0004401C4F202010A68044622F480720A60FC
:1028B0000021C4F202010846022100F08DFEA06B47
:1028C000BDE8104000F04ABC43F64402C4F20202E4
:1028D000106820F4007306E043F64402C4F20202DA
:1028E000106820F480630020C4F20200022113600B
:1028F00000F072BE70B586B0026842F20023C4F2E6
:10290000010300219A42CDE90411CDE902110191A0
:1029100074D042F20011C4F201018A424ED042F258
:102920000001C4F201018A4240F08B800546002676
:1029300043F630000096C4F20200416941F4807110
:102940004161416901F4807100910099009601682C
:1029500041F001010160006801A900F00100009050
:102960000098022001900320CDE902060020C4F265
:10297000020000F01BFF48F2342446F21040C2F27D
:102980000004C4F202004FF48061C4E9000604F1BF
:1029900010004FF480524FF480434EC02046C4E9EB
:1029A0000266C4E9086600F0FFFC002818BFFEF7C5
:1029B00033FAAC63A56306B070BD00BF002043F6D8
:1029C00030010090C4F202014A6942F400724A6187
:1029D0004A6902F400720092009A00900A6842F07C
:1029E00001020A60096801F00101009100990221C9
:1029F00001910321CDE902101DE000BF43F6300034
:102A00000091C4F20200426942F48062426142696C
:102A100002F480620092009A0091026842F0010282
:102A20000260006800F00100009000980220019010
:102A30000320CDE902010020C4F2020001A900F048
:102A4000B5FE06B070BD000010B581B00021009148
:102A500090F83C10012903D1022001B010BD00BF45
:102A60000468012180F83C10214651F8083FDB073B
:102A700029D10B684DF6836243F001030B6040F2ED
:102A80005803C2F200031B68C4F21B32A3FB0223EB
:102A90009A0C02EB42020092009AA2B1009A013A0B
:102AA0000092009A7AB1009A013A0092009A52B1CB
:102AB000009A013A0092009A2AB1009A013A0092D3
:102AC000009A002AEAD10A68036CD2070CD143F0BD
:102AD0001001016400F1440101200A6810430860FC
:102AE000002001B010BD00BF40F2017223EA0202D3
:102AF00002F5807202646268520504D5026C0123FB
:102B000063F30D320264026C4FF0000E0023D20416
:102B100044BF426C22F0060342F2043C436480F856
:102B20003CE06FF02200C4F2010C2060DCF80000F1
:102B3000C0060DD0ACF5417084422BD14FF6045045
:102B4000CFF6FF705CF8000010F0405F22D125E066
:102B500042F20000C4F20100844217D042F2002089
:102B6000C4F2010084420DD042F20010C4F2010010
:102B700084420FD1DCF80000C00607D0ACF58270AB
:102B8000844207D1DCF80000C00603D4086810F0C6
:102B9000405F03D0002001B010BD00BF4FF0804067
:102BA0009BE70000B0B582B00023019390F83C3061
:102BB000012B03D1022002B0B0BD00BF8E4601231D
:102BC000016880F83C308B689446DB0729D18B681C
:102BD0004DF6836443F001038B6040F25803C2F268
:102BE00000031B68C4F21B34A3FB0434A30C03EBE7
:102BF00043030193019BA3B1019B013B0193019B03
:102C00007BB1019B013B0193019B53B1019B013BB4
:102C10000193019B2BB1019B013B0193019B002B75
:102C2000EAD18B68DB0503D58B6823F480738B6056
:102C30008C68036CE4070BD143F01001016400F1D0
:102C40004401002001220B681A430A6002B0B0BDA3
:102C500040F20174A34303F5807303644B685B0582
:102C600004D5036C012464F30D330364046C002366
:102C7000E4044FF0000444BF446C24F006044464B0
:102C800080F83C30836B40F2ED4440F27152C0F664
:102C90000004C0F60002C3E90F4240F25D52C0F6E4
:102CA0000002DA646FF022020A604A6842F20434D9
:102CB00042F080624A608A68054642F480728A6007
:102CC0004C31184672466346C4F2010400F01EFC03
:102CD00022682968D20605D0A4F54172914225D018
:102CE00002B0B0BD42F20002C4F20102914215D01E
:102CF00042F20022C4F2010291420CD042F20012D0
:102D0000C4F201029142EBD12268D20606D0A4F5AA
:102D100082729142E4D12268D206E1D451F8082FA0
:102D200012F0405FDCD14FF080428CE74FF6045246
:102D3000CFF6FF72A25812F0405FD1D108314FF0A8
:102D4000804280E790F83C10012904BF02207047C0
:102D500001688A6822F001028A608968C90705D182
:102D6000016C41F20112914301310164002180F8AC
:102D70003C1000207047000090F83C10012904BF6F
:102D800002207047B0B50121026880F83C109168BC
:102D9000002421F0010191609168C9074FF0000102
:102DA00023D1916821F480719160816B91F8352075
:102DB000022A0BD10546084600F076F940B12A6C8C
:102DC0000146284642F040022A6403E0002101E067
:102DD000002128460268536823F080635360026C28
:102DE00041F201139A430132026480F83C40BDE88D
:102DF000B040084670470000704700007047000070
:102E00007047000000284FF0010318BF002901D1CE
:102E1000184670474379012B4FF00203F8D010B5E4
:102E20000371036802F0100ED3F800C0D1E900145A
:102E300040F6FE7202FA0EF221432CEA020201FA77
:102E40000EF111431960C0211A6801FA0EF122EA4D
:102E5000010119600121002301714371BDE8104097
:102E60001846704770470000704700007047000028
:102E7000002804BF01207047017941B910B5002135
:102E80004171044600F00CF82046BDE810400221D4
:102E900001710021012201610271084670470000A2
:102EA000F0B587B0044647F200402168C4F2000044
:102EB000002681420696CDE904660396029601D06B
:102EC00007B0F0BD43F630010196C4F202010A6971
:102ED00000F5C63042F000520A610A6902F0005261
:102EE0000192019A01960A6842F001020A6009689B
:102EF00001F0010101910199102102910321CDE915
:102F0000031602A900F052FC48F2942546F288000C
:102F1000C2F20005C4F202004FF0606140224FF49B
:102F2000806385E8470005F110004FF4006C4FF412
:102F3000005E80E808504FF480304FF48077C5E998
:102F400008062846EF6100F02FFA002818BFFDF7A9
:102F500063FFA560AC6307B0F0BD0000002804BFAC
:102F6000012070478446407901284FF0020008BFD5
:102F700070472DE9F041069C012688468CF80560D3
:102F80008CF8040021B3DCF80C0040F6B93640F6AA
:102F90000147C0F60006C0F60007C0E90F6740F61B
:102FA000E137DCF80010C0F60007C7640F68042C96
:102FB00047F080570F604FF01C0708BF1827654681
:102FC000002C08BF142701EB070C4FF0005423E03E
:102FD000DCF800106546DCF8080040F6A93C40F635
:102FE000F936C0F6000CC0F60006C0E90FC640F680
:102FF000C936C0F60006C6640E68042C46F4805636
:103000000E604FF0100608BF0C26002C08BF0826E3
:1030100001EB060C4FF400540F6827430F60114674
:10302000624600F073FA0021697118B105F11001D0
:10303000042205E008F010020123296803FA02F2D5
:103040000B681A430A60BDE8F04170474FF0010277
:1030500038B370B5036801F0100C4FF4805E1D6842
:103060000EFA0CF4A5431D601D6802FA0CF225EA65
:1030700002021A600C22002908BF082281586FF052
:1030800000540646084608BF6FF40054012500F0BE
:103090000BF8306800220168214001603571BDE8FD
:1030A000704010467047000070B5866D044600F011
:1030B00053FC94F83510022928D105462068216C6C
:1030C000026822F016020260426922F08002426128
:1030D00009B9A16C19B1016821F00801016001680A
:1030E00021F00101016000BF20680068C00715D011
:1030F00000F032FC401B0628F6D320206065032038
:1031000084F83500002184F8341070BD802060659B
:103110000120002184F8341070BD00BFE06D3F2114
:1031200001FA00F0B060012084F835000020002191
:1031300084F8341070BD000090F83510022909D1D0
:10314000052180F835100068016821F00101016057
:10315000002070478021416501207047002804BF8E
:103160000120704790F83510022904BF02207047F3
:10317000B0B501684AF6AB2201F0F803D1F800C0FF
:10318000A3F11005CAF6AA22A5FB022E2CF001021B
:103190000A60002221234DF6CC340A604A608A601E
:1031A000CA600A614B614FEA1E13C0F60004E35C7B
:1031B00040F2FF34A1435F2D4FF03F0588BF04313B
:1031C000C0E9161305FA03F3C0E90F22C0E9112282
:1031D000C0E913228B60426580F8352080F83420E6
:1031E0000020B0BDF0B581B00021009140F258013F
:1031F000C2F200010B68D0E9166148F2B5153768D4
:103200000822C1F64E358A403A42A3FB05350CD060
:1032100003681C68640708D51C6824F004041C605B
:10322000B260426D42F00102426501228A403A4298
:1032300008D003685B691B0604D5B260426D42F09A
:103240000202426504228A403A4208D003681B68A1
:103250009B0704D5B260426D42F004024265102221
:103260008A403A4219D001680B681B0715D5B26035
:103270000B680A685B0309D4D20509D40A6822F0F6
:1032800008020A60016C29B907E000BF110341D4AC
:10329000016C11B1044688472046C26D202101FA15
:1032A00002F33B4243D001680F68FF063FD5B3608D
:1032B00090F835700B68052F1CD123F016030B60B6
:1032C0004B6923F080034B61036C0BB9836C1BB11A
:1032D0000B6823F008030B603F219140B16001218E
:1032E00080F83510016D0022002980F8342054D177
:1032F00058E000BF0A685B0310D4D20512D40A68F4
:1033000022F010020A60012180F83510002180F8B7
:10331000341007E0816C0029BCD1BEE7110301D451
:10332000416C00E0C16B11B1044688472046416DF5
:10333000C1B3416DC9072ED0052180F83510016851
:10334000AA0A0B6823F001030B60009B0133934230
:1033500000931AD80B68DB0717D0009B0133934208
:10336000009312D80B68DB070FD0009B0133934208
:1033700000930AD80B68DB0707D0009B0133934208
:10338000009302D80B68DB07DFD1012180F83510EC
:10339000002180F83410C16C21B101B0BDE8F040CB
:1033A000084700BF01B0F0BD2DE9F041044600F030
:1033B000D3FAECB10546022084F8350000202168DC
:1033C00084F83400086820F001000860216808686B
:1033D000C00711D000F0C0FA401B0528F6D903251C
:1033E00020230320636584F83550BDE8F08100BFD9
:1033F0000120BDE8F08100BF086848F23F02CFF22B
:103400001002D4E9013500EA020C04F10C0898E836
:10341000C10143EA0C032B431843D4E9072E304380
:1034200038431043626A40EA0E00042A40EA080367
:103430001CD1206BD4E90A2E40EA0E001843086024
:103440004869BEF1000F20F0030040EA020040F09E
:10345000040C11D0B8F5005F36D0B8F1000F45D19B
:10346000022A46D0012A3BD032B942E00B604869BB
:1034700020F0070040EA020C01F0F8004AF6AB2207
:103480001038CAF6AA22A0FB02231A094DF6CC3343
:10349000C1F814C0C0F600039A5C40F2FF335F2805
:1034A0004FF03F0021EA030100FA02F088BF043127
:1034B000C4E916128860002301250020636584F8A2
:1034C0003550BDE8F08100BF032AD5D8012540233F
:1034D0000120DFE802F0030E030500BF82E700BF12
:1034E000AEF1C070B0FA80F0400904E0032A04D3C2
:1034F000C2D1CEF300600028BED0012540230120B8
:10350000636584F83550BDE8F081000090F834C060
:10351000BCF1010F04BF0220704770B54FF0010CE1
:1035200080F834C0D0F858E090F835C0BCF1010FF5
:1035300038D14FF0020C80F835C04FF0000CC0F8C5
:1035400054C0D0F800C08468056CC06DDCF8006021
:10355000402C26F48026CCF80060CCF804300B46D2
:1035600004BF13460A463F2101FA00F0CCF80830A8
:10357000CCF80C20CEF80800DCF8000040F0160073
:10358000CCF800002DB1DCF8000040F00800CCF8C9
:103590000000DCF8000040F00100CCF80000002042
:1035A00070BD00BF002180F83410022070BD000003
:1035B000B0B5044600F0D0F9054640F20800C2F26A
:1035C00000000078611C18BF044400BF00F0C4F97B
:1035D000401BA042FAD3B0BD2DE9F04F82B000F1FC
:1035E0003E4241F60047894602F1FF72C4F20207EB
:1035F00008214FEAB223B84208BF072100F1200793
:10360000002404254FF0020B0097072B38BF4FEA28
:10361000B221019126E000BF0168032202FA0BF2F9
:10362000914301606FF00301009F01EA540305F02C
:103630001C0CFE580F2101FA0CF126EA0101F95089
:10364000C168D1469143C160416821EA0E014160E1
:1036500081689143816002340835102C0BF1040B12
:1036600000F0A080012101FA04F818EA090A59D0F3
:1036700043F60041C4F201012F1FA1F57E7C24F026
:10368000030207F0080E0F215CF8023001FA0EF277
:103690000199134001FA0EF6B34224D143F6004ECD
:1036A000C4F2010EDEF8003043F60C4123EA0A03AF
:1036B000CEF80030DEF80430C4F2010123EA0A0338
:1036C000CEF804300B68A60823EA0A030B60DEF884
:1036D000083023EA0A03CEF808305CF8263023EAE3
:1036E00002024CF82620ABF102020368032101FA22
:1036F00002F29343036007F0180C6FF00301009F80
:1037000001EA5406B9590F2303FA0CF39943B9514E
:10371000C1689143C160416821EA08014160816844
:1037200091438160022101FA04FE1EEA090292D04F
:1037300043F60041C4F20101CA46A1F57E7924F0A6
:10374000030105F00C060F2359F8011003FA06FCDB
:10375000019B01EA0C0103FA06F6B1427FF45CAF6B
:1037600043F60048C4F20108D8F8001043F60C46AE
:103770009143C8F80010D8F80410C4F20106914330
:10378000C8F80410316891433160D8F80810A608D1
:103790009143C8F8081059F8261021EA0C0149F89D
:1037A000261039E702B0BDE8F08F00002DE9F04F98
:1037B00083B000F1200200F13E4741F6004500923F
:1037C00007F1FF77C4F2020508224FEAB726A842A4
:1037D00008BF072200254FF000084FF00009072E10
:1037E00038BF4FEAB72201920AE000BF09F1010990
:1037F00008F10208B9F1100F05F1040500F0A280EC
:103800000F68012202FA09FE17EA0E0AEED0D1F87B
:1038100004C003220CF003077E1E02FA08F4012EF6
:103820006FEA040B12D88468CE6804EA0B0406FA27
:1038300008F634438460446824EA0E06CCF300148E
:1038400004FA09F42643466004E000BF032F01D1C7
:1038500003271EE0C6688C6806EA0B0604FA08F423
:103860002643022FC66014D16FF00302009E02EAC5
:10387000590756F807C005F01C040F220B69A24037
:103880002CEA0202A3401A43F251D1F804C00CF012
:103890000307026807FA08F302EA0B021A431CF452
:1038A000403F0260A2D0002243F644030292C4F2D9
:1038B00002031A6843F6004442F480421A601A6810
:1038C000C4F2010402F480420292029A29F0030237
:1038D0004FF6084C2244CFF6FF7C52F80C3005F02E
:1038E0000C070F26BE40B343019E06FA07F73B4381
:1038F00042F80C30A2684B6842EA0A0743F60C4CC7
:10390000DE0258BF22EA0A07A760C4F2010CDCF805
:1039100000209E0242EA0A0758BF22EA0A07CCF8B2
:10392000007062689E0342EA0A0758BF22EA0A074B
:1039300067602268DB0342EA0A0758BF22EA0A07E7
:10394000276053E703B0BDE8F08F0000002A08BFEE
:10395000090481617047000049F26020C2F2000052
:103960000068704740F2080049F26021C2F200008E
:10397000C2F2000100780A68104408607047000035
:1039800080B543F60040C4F20200016841F40071C2
:103990000160016841F480610160016841F4807157
:1039A0000160032000F086F80F2000F005F800F019
:1039B00027F8002080BD000070B540F20806C2F272
:1039C000000640F258013278C2F200014FF47A73D7
:1039D0000968B3FBF2F20446B1FBF2F1084600F0CD
:1039E00061FB0F2C4FF0010508D838B94FF0FF30BC
:1039F00021460022002500F031F87460284670BD91
:103A000082B0002043F640010190C4F202014A68EE
:103A100042F480424A604A6802F480420192019A6C
:103A20000090086840F080500860086800F08050FE
:103A30000090009802B07047002848BF704700F01F
:103A40001F01012202FA01F11C2202EAD0004EF20B
:103A50000012CEF2000281507047000010B54EF601
:103A60000C5CCEF2000CDCF80030C3F3022E8EF0BA
:103A70000704042C28BF0424BEF103034FF0FF3ECB
:103A80000EFA04F438BF0023A14399400EFA03F361
:103A90009A43114300F00F0200F160430901043A18
:103AA00003F564436244002848BF02F10C03197017
:103AB00010BD00004EF60C51CEF200010A684FF620
:103AC000FF031A4060F30A2242F0806040F0FD706C
:103AD00008607047002804BF012070472DE9F041BD
:103AE00043F60808C4F202080446D8F8F8030D4665
:103AF00000F00700814207D988F8F853D8F8F80396
:103B000000F00700A84277D12068810717D5410748
:103B100005D5D8F8001041F4E051C8F800100107AD
:103B200005D5D8F8001041F46041C8F80010D8F865
:103B30000010A26821F0F0011143C8F80010C0077E
:103B400040D1D8F8F80300F00700854207D288F882
:103B5000F853D8F8F80300F00700A8424CD12068C9
:103B6000410707D5D8F80010E26821F4E05111436D
:103B7000C8F80010000708D5D8F80000216920F423
:103B8000604040EAC100C8F8000000F07DF8D8F8B5
:103B9000001048F21C62C1F30311C0F60002515C30
:103BA00040F2580220FA01F140F20C00C2F200008B
:103BB0000068C2F200021160FFF7FEFE0020BDE8BF
:103BC000F08100BF6068811E022907D258F8081CE6
:103BD00089015CBF0120BDE8F08111E0012807D117
:103BE00058F8081C89035CBF0120BDE8F08107E09C
:103BF00058F8081C890703D40120BDE8F08100BFF4
:103C0000D8F8001021F003010843C8F80000FFF7BE
:103C1000A3FE064641F28837D8F80000616800F03C
:103C20000C00B0EB810F8CD0FFF796FE801BB842E2
:103C3000F2D90320BDE8F08140F2580043F60801B4
:103C4000C2F20000C4F202010068096848F22C6266
:103C5000C1F38221C0F60002515CC84070470000E9
:103C600040F2580043F60801C2F20000C4F202011B
:103C70000068096848F22C62C1F34231C0F60002C4
:103C8000515CC8407047000010B543F60404C4F20C
:103C900002046168C1F3810142F20040C0F2F40005
:103CA000DFE801F002040A0210BD00BF41F200206B
:103CB000C0F27A0010BD00BF216801F03F02216808
:103CC00023684902C3F3881106D4A1FB0001002335
:103CD000FCF776FA07E000BF41F20020C0F27A005C
:103CE0004843B0FBF2F021680222C1F3014102EB2C
:103CF0004101B0FBF1F010BD002804BF0120704766
:103D00002DE9F04182B00446007843F60006C00772
:103D1000C4F202060CD0B06800F00C00042840F099
:103D200081803068800303D56068002800F06881D6
:103D3000207880071BD5B06810F00C0F09D0B06850
:103D400000F00C00082840F087807068400200F105
:103D500083803068800703D5E068012840F05081F7
:103D60003068216920F0F80040EAC1003060207816
:103D7000000713D4207840072AD4A569002D00F04D
:103D80003A81B06800F00C00082840F0A580012DB1
:103D900040F00E81012002B0BDE8F081606900288A
:103DA00000F082800020C4F247200121C0F8801E6C
:103DB000FFF7D2FD054600BF706F8007DAD4FFF72A
:103DC000CBFD401B0228F7D9032002B0BDE8F081EB
:103DD000306C5FEAC0080AD400200190306C40F0DB
:103DE00080503064306C00F080500190019847F2B0
:103DF0000007C4F200073868C00547D4386840F4AB
:103E000080703860FFF7A8FD054600BF3868C00520
:103E10003CD4FFF7A1FD401B0228F7D9032002B0D4
:103E2000BDE8F081B06800F00C00082803D170688C
:103E300040023FF576AF61683068B1F5803F07D04A
:103E4000B1F5A02F40F09A8040F4802030603068B7
:103E500040F4803030609AE0E068002840F20000D2
:103E6000C4F247205CD001210160FFF775FD0546D3
:103E7000306880073FF574AFFFF76EFD401B0228E6
:103E8000F6D9032002B0BDE8F08100BFA168306F11
:103E9000012905D0052955D140F004003067306F65
:103EA00040F00100306756E00020C4F247200021B6
:103EB000C0F8801EFFF750FD054600BF706F8007F9
:103EC0007FF558AFFFF748FD401B0228F6D90320C5
:103ED00002B0BDE8F08100BF0027C4F247270020F0
:103EE0003866FFF739FD022D05460DD13068800197
:103EF00040F18A80FFF730FD401B02284FF003009D
:103F0000F4D902B0BDE8F0813068800173D5FFF7C5
:103F100023FD401B02284FF00300F5D9F1E700BF55
:103F200000210160FFF718FD054600BF30688007DB
:103F30007FF51DAFFFF710FD401B02284FF0030077
:103F4000F4D9DEE720F001003067306F002920F05F
:103F5000040030677AD0FFF7FFFC054641F288374E
:103F6000306F800700F18480FFF7F6FC401BB842F9
:103F7000F6D9032002B0BDE8F08100BF20F4803004
:103F800030603068002920F4802030607AD0FFF75C
:103F9000E3FC0546306880033FF5CAAEFFF7DCFC62
:103FA000401B6428F6D9032002B0BDE8F08100BFB1
:103FB0007068E16900F480028A4221D1216A00F030
:103FC0003F028A421CD147F6C071626A0140B1EBE0
:103FD000821F15D1A16A4FF6FF73C903994300F4FC
:103FE0004032A1F580318A420AD1E16A00F0706066
:103FF000B0EB016F04D1002002B0BDE8F08100BF3A
:10400000012002B0BDE8F08104F11C052FCD08436A
:1040100040EA8210D9034FF6FF729143A1F5803137
:1040200040EA05600843706001203866FFF794FCA1
:10403000044600BF30688001DDD4FFF78DFC001B13
:1040400002284FF00300F5D95BE700BFFFF784FCBF
:10405000054641F2883700BF306F800708D5FFF76B
:104060007BFC401BB8424FF00300F5D949E700BF85
:10407000B8F1000F3FF581AE306C20F08050306415
:104080007BE600BFFFF768FC054600BF3068800391
:104090007FF54EAEFFF760FC401B64284FF0030035
:1040A000F4D92EE7411E0020B0EB116F1CBF012098
:1040B00070474EF21002CEF2000251604EF62351CC
:1040C000CEF20001F0230B70072190601160704761
:1040D000704700007047000090F83C20012A4FF024
:1040E000020254D010B580F83D200268D2F804E0F6
:1040F000D2F808C00C682EF07003234341F2FF741D
:10410000C4F20004A24253600EDC40F2FF73C4F21A
:1041100000039A4216DCB2F1804F2BD040F20043EC
:10412000C4F2000324E000BF40F2FF33C4F20103F5
:104130009A4213DC41F60003C4F200039A4219D0FC
:10414000002313E040F60003C4F200039A4211D0AA
:1041500040F60043C4F200030AE000BF44F200034B
:10416000C4F201039A4205D040F20043C4F20103B5
:104170009A4204D149682CF08003194391600121CF
:10418000002280F83D1080F83C20BDE81040104629
:1041900070470000002804BF0120704710B5044696
:1041A00090F83D0028B9002084F83C00204600F03B
:1041B0001FF8022084F83D002068211D02F04CFA0F
:1041C000012084F8460084F83E0084F83F0084F81B
:1041D000400084F8410084F8420084F8430084F8E9
:1041E000440084F8450084F83D00002010BD000024
:1041F00080B586B0006840F20042C4F2010200219E
:104200009042CDE90411CDE9021101914AD040F666
:104210000041C4F20001884210D0B0F1804F4FD16C
:104220000020009043F64000C4F20200016841F013
:1042300001010160006800F001003FE0002043F64A
:1042400040010090C4F202010A6842F008020A60CC
:104250000A6802F008020092009A009051F8102CAF
:1042600042F0010241F8102C51F8101C01F001013C
:1042700000910099012101910221CDE90210CDE9BF
:1042800004010020C4F2020001A9FFF78FFA3220D6
:1042900000210022FFF7E2FB3220FFF7CDFB06B042
:1042A00080BD00BF43F640000091C4F202004168A7
:1042B00041F002014160406800F002000090009867
:1042C00006B080BD90F83D1001291CBF0120704749
:1042D000022180F83D10006841F2FF71C4F2000134
:1042E00088420DDC40F2FF71C4F20001884215DC07
:1042F000B0F1804F2AD040F20041C4F2000123E027
:1043000040F2FF31C4F20101884213DC41F60001A2
:10431000C4F20001884219D0002113E040F60001E8
:10432000C4F20001884211D040F60041C4F20001FD
:104330000AE000BF44F20001C4F20101884205D046
:1043400040F20041C4F20101884206D1816801F0C7
:104350000701062904BF00207047016841F00101F0
:1043600001600020704700000146006841F211130F
:10437000026A1A4204D00122002081F83D207047D1
:10438000026A40F244431A42F5D1026822F0010267
:1043900002600122002081F83D20704790F83C2007
:1043A000012A4FF002026CD080B580F83D20D0F891
:1043B00000C04FF67772DCF8083023EA0202CCF82E
:1043C00008200B684F2B29DC1F2B45DD202B46D006
:1043D000302B44D0402B40F0AF80D1F804E0C968C6
:1043E000DCF82030DCF8202022F00102CCF820207C
:1043F000DCF8182022F0F00242EA011123F00A0250
:1044000042EA0E02CCF81810CCF82020DCF8081094
:1044100041F0470121F0300128E000BF6F2B33DD70
:10442000B3F5005F74D0B3F5805F21D0702B40F0FE
:104430008380D1E901E3C968DCF8082043EA0E0370
:1044400022F47F4243EA01211143CCF80810DCF842
:10445000081041F0770109E00BB1102B6CD1DCF8AA
:10446000081021F07001194341F00701CCF8081041
:104470000022012180F83D10002180F83C10BDE8A9
:1044800080401046704700BF502B21D0602B53D185
:10449000D1F804E0C968DCF82030DCF8202022F0F4
:1044A0001002CCF82020DCF8182022F4704242EAF6
:1044B000013123F0A00242EA0E12CCF81810CCF819
:1044C0002020DCF8081041F0670121F01001CDE751
:1044D000D1F804E0C968DCF82030DCF8202022F0B4
:1044E0000102CCF82020DCF8182022F0F00242EA89
:1044F000011123F00A0242EA0E02CCF81810CCF89F
:104500002020DCF8081041F0570121F02001ADE730
:10451000D1E901E3C968DCF8082043EA0E0322F47C
:104520007F4243EA01211143CCF80810DCF808105F
:1045300041F480419AE700BF01229AE7016840F602
:104540000042C4F20002914218BF7047B0B5027F2A
:1045500040F29C05012AC2F2000505D0022A0DD0C6
:10456000BDE8B040704700BF0021044600F0DAFB10
:10457000227F014620462960022AF1D1042100F061
:10458000D1FB6860BDE8B0407047000090F83C3057
:10459000012B04BF022070474FEAB202032A00F247
:1045A0008D80F0B5DFE802F0026426460368D1E9A9
:1045B00000C5D1F80CE01C6A1A6A41F2FF7722F0BC
:1045C00001021A621A4652F8186FC4F20007BB4281
:1045D0007ADC40F2FF77C4F20007BB4200F382802E
:1045E000B3F1804F00F0968040F20047C4F200071C
:1045F0008EE000BF0768D1E900C5D1E902313C6A0D
:104600003A6A61F3071522F480723A623A4652F828
:104610001C6F26F0F30645EA060124F420660CF030
:104620000A0546EA052611603E62116821F00C0178
:10463000116080E00368D1E900E6D1E902C11C6A9B
:104640001A6A360222F480521A621A4652F81C5F25
:104650004FF2FF07BE4325F4734561F30F3624F490
:1046600020440EF00A0746EA050144EA07371CE039
:104670000368D1E900E6D1E902C11C6A1A6A360270
:1046800022F010021A621A4652F8185F4FF2FF0722
:10469000BE4325F4734561F30F3624F0A0040EF0F9
:1046A0000A0746EA050144EA071711601F6211680C
:1046B0004FEA0C2321F4406111603CE0012100220B
:1046C00080F83C200846704740F2FF37C4F20107EB
:1046D000BB4213DC41F60007C4F20007BB4219D00D
:1046E000002713E040F60007C4F20007BB4211D0D8
:1046F00040F60047C4F200070AE000BF44F200079A
:10470000C4F20107BB4205D040F20047C4F20107E2
:10471000BB421BD126F00306354324F00A070CF0F8
:104720000A066EF3071537449D611F629F6927F0E3
:104730000C079F618B681168194311600021BDE867
:10474000F040002280F83C200846704746F0010502
:10475000E3E70000002804BF0120704710B50446BD
:1047600090F83D0028B9002084F83C00204600F075
:104770001FF8022084F83D002068211D01F06CFF25
:10478000012084F8460084F83E0084F83F0084F855
:10479000400084F8410084F8420084F8430084F823
:1047A000440084F8450084F83D00002010BD00005E
:1047B0007047000031B3042908D0082919BF4FF011
:1047C000450C41234FF0440C402302E04FF0430CD2
:1047D0003F23C25C10F80C30012A4FF0010208BFE1
:1047E000012B63D10222082922D0042954D180F858
:1047F0003F2080F843204FEAB103032B4FF0010222
:1048000020D953E090F83E2090F84230012A4FF032
:10481000010208BF012B49D1022280F83E2080F816
:1048200042204FEAB103032B4FF001020AD93DE0C9
:1048300080F8402080F844204FEAB103032B4FF06A
:10484000010233D84DF69C3C0068C0F6000C5CF8C1
:1048500023C0C36801F01F0143EA0C03C360036A6D
:1048600002FA01F123EA01020262026A114341F2F3
:10487000FF72C4F200029042016219DC40F2FF7143
:10488000C4F20001884221DCB0F1804F36D040F202
:104890000041C4F200012FE080F8412080F845205B
:1048A0004FEAB103032B4FF00102CBD910467047FA
:1048B00040F2FF31C4F20101884213DC41F60001ED
:1048C000C4F20001884219D0002113E040F6000133
:1048D000C4F20001884211D040F60041C4F2000148
:1048E0000AE000BF44F20001C4F20101884205D091
:1048F00040F20041C4F20101884206D1816801F012
:104900000701062904BF00207047016841F001013A
:10491000016000207047000070B504460068C5685B
:104920000669B10716D515F0020113D06FF0020128
:104930000161012121778069800703D02046FFF7BC
:10494000FDFD05E0204600F08FF8204600F0E6F976
:1049500000202077700719D515F0040016D02068C4
:104960006FF00401016102212177806910F4407F1A
:1049700004D02046FFF7E2FD06E000BF204600F02D
:1049800073F8204600F0CAF900202077300717D5C9
:1049900015F0080014D020686FF0080101610421AF
:1049A0002177C069800703D02046FFF7C7FD05E0E7
:1049B000204600F059F8204600F0B0F9002020779A
:1049C000F00619D515F0100016D020686FF0100110
:1049D000016108212177C06910F4407F04D020468E
:1049E000FFF7ACFD06E000BF204600F03DF8204692
:1049F00000F094F900202077F00718BF15F00100AF
:104A000002D1300609D412E020686FF00101016183
:104A1000204600F085F9300609D515F0800006D053
:104A200020686FF0800101612046FFF751FB70069E
:104A300009D515F0400006D020686FF040010161F3
:104A4000204600F0A7F9B00658BF70BD15F0200051
:104A500008D021686FF0200220460A61BDE870404E
:104A6000FFF738BB70BD00007047000090F83C3085
:104A7000012B04BF022070474FEAB202032A00F262
:104A8000FF802DE9F043DFE802F003B13F7F00BF74
:104A9000036840F200461C6A1A6A24F0020422F0FD
:104AA00001021A621A46D3F804C052F818EF8F6850
:104AB00043F48065C4F20106B54244EA070405D117
:104AC000CF6824F00C0427F004073C430F68B5427C
:104AD00006D1D1E905582CF440762E4346EA080C5D
:104AE0002EF073063743C3F804C09F614F6809690D
:104AF0005F631C629F6947F008079F619F6927F009
:104B000004079F61B1E000BF036840F200481C6ADF
:104B10001A6A24F4007422F480721A621A46D3F8D6
:104B200004C052F81CEF8F6843F48065C4F201089A
:104B3000454544EA072408D1CF6840F2FF463F02CA
:104B400024F4406427EA06063443D1F80090454532
:104B500006D1D1E905562CF440572E4347EA061CEE
:104B60002EF0730747EA0907C3F804C0DF614F68F6
:104B70000969DF631C62DF6947F00807DF61DF69ED
:104B800027F00407DF6170E0036840F20045D3F8C6
:104B900020C01A6A43F4806722F480521A621A46CF
:104BA0005C6852F81C8FD1F800E08E68C4F20105F1
:104BB000AF4204D14D6924F4804444EA85142CF4B6
:104BC000005747EA063728F4E64646EA0E265C60B8
:104BD000DE614E6809691E641F62DF6947F4006781
:104BE000DF61DF6927F48067DF613DE0036840F241
:104BF00000481C6A1A6A24F0200422F010021A628B
:104C00001A46D3F804C052F818EF8F6843F4806551
:104C1000C4F20108454544EA071407D1CF686FF094
:104C2000400624F0C00406EA07163443D1F8009089
:104C3000454506D1D1E905562CF440672E4347EA95
:104C4000860C2EF4E64747EA0927C3F804C09F61A3
:104C50004F6809699F631C629F6947F400679F6101
:104C60009F6927F480679F610902136819431160E7
:104C70000021BDE8F043002280F83C200846704740
:104C80000121002280F83C2008467047002804BF1C
:104C90000120704710B5044690F83D0028B9002067
:104CA00084F83C00204600F01FF8022084F83D0004
:104CB0002068211D01F0D0FC012084F8460084F812
:104CC0003E0084F83F0084F8400084F8410084F8F6
:104CD000420084F8430084F8440084F8450084F8D6
:104CE0003D00002010BD0000006840F20041C4F209
:104CF0000001884218BF704781B00020009043F641
:104D00004000C4F20200016841F002010160006845
:104D100000F002000090009801B07047704700005A
:104D2000704700004FEAB101032984BF002070479B
:104D3000006800EB8100406B70470000B0B504468E
:104D400090F83C0001284FF0020008BFB0BD0125DB
:104D500084F83C5084F83D00204601F01BFD0028FB
:104D60004FF0010006D0002184F83D5084F83C103B
:104D7000B0BD00BF2068C16821F04001C160C168BA
:104D800021F48041C1600020002184F83D5084F866
:104D90003C10B0BD7047000070B582B090F8425032
:104DA000202D0BD113460A460146002A4FF0010080
:104DB00018BF002B06D102B070BD00BF022002B0A8
:104DC00070BD00BF0863002622204E638A628B8577
:104DD0004E6481F842000C680D46C86B46F6192CEB
:104DE00046F67931C0F6000CC0F60001C0E90FC1EB
:104DF00046F69D01C0F60001C0E91316211DFEF71D
:104E000085FBE8B3102068642020294685F842001D
:104E100001200A6B012A40F0B380002200920A6848
:104E20001368009352680092009A00BF0A6852E823
:104E3000032F0B6842F0100243E80326002EBAD07D
:104E40000A6852E8032F0B6842F0100243E8032679
:104E5000002EB0D00A6852E8032F0B6842F010020F
:104E600043E80326002EA6D00A6852E8032F0B68F9
:104E700042F0100243E80326002ED7D19BE700BF83
:104E800001962868294602680192406801900198BD
:104E9000286928B3086850E8030F0A6840F4807056
:104EA00042E80303E3B1086850E8030F0A6840F4DE
:104EB000807042E803039BB1086850E8030F0A685A
:104EC00040F4807042E8030353B1086850E8030FD0
:104ED0000A6840F4807042E80303002BDAD100BF77
:104EE000086850E8050F0A6840F0010042E8050331
:104EF000BBB3086850E8050F0A6840F0010042E8BB
:104F0000050373B3086850E8050F0A6840F0010014
:104F100042E805032BB3086850E8050F0A6840F023
:104F2000010042E80503002BDAD11AE0086850E8D6
:104F3000050F0A6840F0400042E80503DBB108684D
:104F400050E8050F0A6840F0400042E8050393B1BD
:104F5000086850E8050F0A6840F0400042E8050381
:104F60004BB1086850E8050F0A6840F0400042E87D
:104F70000503002BDAD100200A6B012A3FF44DAF64
:104F8000012002B070BD0000016841F20002C4F2CD
:104F90000102914218BF704780B5002180F840108F
:104FA00040F2AA00C2F200000121017048F27440F0
:104FB00040F2AC01C2F20000C2F200018022FFF711
:104FC000EBFE48F2F420C2F200000068016821F014
:104FD00008010160BDE880407047000080B548F2DC
:104FE000744040F2AC01C2F20000C2F20001802223
:104FF000FFF7D2FE48F2F420C2F200000068016818
:1050000021F00801016080BDB0B582B001680A6876
:10501000CC684B6902F02F05202D04F0200505D146
:1050200025B102B0BDE8B04001F0B2BD5FEA027C3C
:105030001EBF03F0010E04F4907313EB0E0341D175
:10504000036BD50618D5012B16D114F0100313D01D
:10505000002201920A6801924A680192019A496904
:1050600049064BD4818DC28DC38D002B18BF914250
:1050700040F0068202B0B0BD13062DD514F08003B7
:105080002AD090F84120212AF4D18268B2F5805FBD
:1050900003D10269002A00F07982026A531C03627C
:1050A00012784A60C28C013A1304C284E2D1C86803
:1050B00020F08000C860C86840F04000C86002B0BE
:1050C000B0BD00BFD30718BF14F4807340F0E28076
:1050D000530700F1E580EAE05206CBD514F0400218
:1050E000C8D0CA6822F04002CA60202180F841106E
:1050F00002B0BDE8B04000F0B1BB00BFC26B1168A8
:105100004B68858D99B2002900F0B480A94280F0E7
:10511000B180C385D169B1F5807F00F0A0800168BE
:1051200051E8031F026821F4807142E80313DBB1E8
:10513000016851E8031F026821F4807142E80313FB
:1051400093B1016851E8031F026821F4807142E8BD
:1051500003134BB1016851E8031F026821F4807109
:1051600042E80313002BDAD1016851E8051F0268F9
:1051700021F0010142E80513BBB3016851E8051FA6
:10518000026821F0010142E8051373B3016851E898
:10519000051F026821F0010142E805132BB30168E5
:1051A00051E8051F026821F0010142E80513002BB8
:1051B000DAD11AE0016851E8051F026821F04001C8
:1051C00042E80513DBB1016851E8051F026821F0D0
:1051D000400142E8051393B1016851E8051F0268D8
:1051E00021F0400142E805134BB1016851E8051F69
:1051F000026821F0400142E80513002BDAD120219A
:1052000080F8421000210163016851E8031F026821
:1052100021F0100142E80313DBB1016851E8031FDC
:10522000026821F0100142E8031393B1016851E8CC
:10523000031F026821F0100142E803134BB101681B
:1052400051E8031F026821F0100142E80313002B0C
:10525000DAD1C16B04460846FDF726FF204602213D
:105260004163818DC28D891A89B202B0BDE8B04018
:10527000FFF78ABE8D427FF4FDAED269B2F5807F22
:105280007FF4F8AE0222426302B0BDE8B040FFF7FF
:105290007BBE00BF436C43F001034364530706D554
:1052A000BEF1000F03D0436C43F002034364930745
:1052B00006D5BEF1000F03D0436C43F004034364F2
:1052C000BCF1000F06D55EEA050303D0436C43F042
:1052D00008034364436C002B3FF4CCAE920605D523
:1052E00025B1044601F054FC216820464969426C0E
:1052F00001F0400102F00802891800F0B98000BFF7
:10530000016851E8031F026821F4907142E8031319
:10531000BBB3016851E8031F026821F4907142E8B1
:10532000031373B3016851E8031F026821F49071FD
:1053300042E803132BB3016851E8031F026821F40C
:10534000907142E80313002BDAD11AE0016851E8AA
:10535000051F026821F0010142E80513DBB1016875
:1053600051E8051F026821F0010142E8051393B1DD
:10537000016851E8051F026821F0010142E80513A8
:105380004BB1016851E8051F026821F0010142E8B4
:105390000513002BDAD1016B012924D1016851E8F2
:1053A000031F026821F0100142E80313DBB101681A
:1053B00051E8031F026821F0100142E8031393B182
:1053C000016851E8031F026821F0100142E803134D
:1053D0004BB1016851E8031F026821F0100142E857
:1053E0000313002BDAD1202180F842100021016341
:1053F00001684969490640F1C380016851E8051F09
:10540000026821F0400142E80513DBB1016851E870
:10541000051F026821F0400142E8051393B10168BD
:1054200051E8051F026821F0400142E805134BB125
:10543000016851E8051F026821F0400142E80513A8
:10544000002BDAD1C16B002900F09A8046F6910258
:10545000C0F60002044608460A65FDF76DFE002806
:105460003FF408AEE06B016D02B0BDE8B040084704
:105470000446FFF7B3FD0020606402B0B0BD00BF7A
:10548000891A00BF026852E8032F036822F4907261
:1054900043E80325BDB3026852E8032F036822F4F2
:1054A000907243E8032575B3026852E8032F03683E
:1054B00022F4907243E803252DB3026852E8032FCB
:1054C000036822F4907243E80325002DDAD11AE034
:1054D000026852E8052F036822F0010243E805251F
:1054E000DDB1026852E8052F036822F0010243E8AB
:1054F000052595B1026852E8052F036822F00102E4
:1055000043E805254DB1026852E8052F036822F0F3
:10551000010243E80525002DDAD1202280F842203F
:1055200000220263026852E8032F036822F010028F
:1055300043E80325DDB1026852E8032F036822F037
:10554000100243E8032595B1026852E8032F03686F
:1055500022F0100243E803254DB1026852E8032F00
:10556000036822F0100243E80325002DDAD102225D
:1055700089B2426302B0BDE8B040FFF705BD00BF8D
:1055800002B0BDE8B040FFF729BD00BF026A32F8A3
:10559000023B6FF35F234B60026283E5002804BF88
:1055A0000120704710B5044690F8410028B900204A
:1055B00084F84000204600F021F8242084F84100BF
:1055C0002068C16821F40051C160204601F060FBF1
:1055D0002068016921F490410161416921F02A01AB
:1055E0004161C16841F40051C16000202021606424
:1055F00084F8411084F84210606310BD70B586B025
:10560000044641F200002168C4F2010000268142F4
:105610000596CDE903660296019601D006B070BDED
:1056200043F630010096C4F202014A6900F5704069
:1056300042F010024A614A6902F010020092009A98
:1056400000960A6842F001020A60096801F001014F
:10565000009100994FF4C06101910221CDE9021639
:10566000032104910721059101A9FEF79FF848F253
:10567000F42546F24040C2F20005C4F202004FF0A9
:1056800000614FF4806285E843002846C5E9036263
:10569000C5E90566C5E907666E62FDF785FE002867
:1056A00018BFFBF7B9FB252000210022E563AC639E
:1056B000FEF7D4F92520FEF7BFF906B070BD000053
:1056C00070470000704700002DE9F04381B00446A8
:1056D00090F84100202809D100294FF0010018BF9F
:1056E000002A07D101B0BDE8F08300BF022001B05D
:1056F000BDE8F0830020606421201D460E4684F83A
:1057000041001746FEF728F9A784E784A16881467F
:10571000B1F5805F02D1206900285DD037460020B6
:10572000E28C2168002A5DD06A1C24D0002D4AD06A
:10573000804600BF0868000608D4FEF70DF9A0EB0C
:105740000900A8427AD82168C868F3E717B117F8AA
:10575000010B04E038F8020B00276FF35F2048606C
:10576000E08C0138E084E08C0028E3D13AE000BF0F
:105770000A68120609D40A68120606D40A681206D4
:105780005CBF0A685FEA0262F2D51FB117F8012B0D
:1057900005E000BF30F8022B00276FF35F224A605C
:1057A000E28C013AE284E28C002AE4D11AE000BFE4
:1057B00030F8022B00276FF35F224A60E28C013A37
:1057C000E284E28C72B10A68120635D5002FEFD060
:1057D00017F8012BF1E700BF00273046E28C216863
:1057E000002AA1D1086840061ED42DB3681C14D12C
:1057F000086840062AD40868400627D4086840068E
:1058000024D4086840064FF00000F1D50DE000BF39
:105810002068C1680068400618D4FEF79DF8A0EB28
:105820000900A842F4D909E00020202184F84110A1
:1058300001B0BDE8F08300BFFEF78EF80320202101
:1058400084F8411001B0BDE8F08300BF00202021A2
:1058500084F8411001B0BDE8F083000070470000FB
:1058600080B5817911B1022080BD00BF0278014668
:10587000A92A4FF002002FDDA2F1AA01222900F28D
:105880004D80DFE811F02300010101010101010158
:1058900001010101010101010101010101010101F8
:1058A00001010101010101019700850001010101D0
:1058B00001010101010101010101010101010101D8
:1058C000010101010101010101019F0040F260009D
:1058D000C2F20000D5E000BF013A102A00F2D480E5
:1058E000DFE802F00A36D2D2D2D2D2D2D2D2D2D28B
:1058F000D2D2D22C460000BF4878012800F07E802A
:10590000002840F0D58040F26000C2F20000017B28
:10591000002900F07A80481EC5E000BFDD2A59D07A
:10592000EE2A18BF80BD40F26000C2F2000081780C
:10593000B1FA81F1490981709FE000BF48780428DD
:1059400000F29B8040F27001C2F20001487094E0C6
:1059500040F260004A78C2F20000C189012A41D0B9
:10596000002A40F0968064293FD94FF6CE728EE02F
:105970004878032800F28180DFE800F00270506070
:10598000D1F8020040F27001C2F20001886074E0B8
:1059900040F26000C2F20000017901220129C270C8
:1059A0007FF461AF04210173FBF7F0F8FAF7AAFC6A
:1059B000022080BD40F26001C2F2000100200870A8
:1059C00080BD00BF40F26000C2F2000001214170C2
:1059D00059E000BF40F26001C2F2000100204870AF
:1059E00080BD00BFB1F57A7F50D34EF2FD30C0F6D6
:1059F000000002F021FD012080BD00BF40F26000E8
:105A0000C2F20000017B05294CD381684EF2F030D0
:105A1000C0F6000002F010FD012080BD48889FED17
:105A20002C1A00EE100AB8EE400A80EE010A40F28D
:105A30007000C2F2000080ED030A1EE048889FED6E
:105A4000241A00EE100AB8EE400A80EE010A40F275
:105A50007000C2F2000080ED040A0EE048889FED5D
:105A60001C1A00EE100AB8EE400A80EE010A40F25D
:105A70007000C2F2000080ED010A40F27000C2F234
:105A8000000001210170002080BD00BF32221144BE
:105A9000C1814EF2FD3089B2C0F6000002F0CCFCAC
:105AA000F1E700BF481C40F26001C2F20001087338
:105AB000FBF76CF8FAF726FC40F26000C2F2000037
:105AC00081684EF2F030C0F6000002F0B5FCDAE773
:105AD0000000C842F0B581B02DED028B82B00C46BB
